{
  "contractName": "Banker",
  "abi": [
    {
      "constant": true,
      "inputs": [
        {
          "name": "",
          "type": "address"
        }
      ],
      "name": "balances",
      "outputs": [
        {
          "name": "",
          "type": "uint256"
        }
      ],
      "payable": false,
      "stateMutability": "view",
      "type": "function"
    },
    {
      "constant": false,
      "inputs": [
        {
          "name": "amount",
          "type": "uint256"
        }
      ],
      "name": "deposit",
      "outputs": [],
      "payable": false,
      "stateMutability": "nonpayable",
      "type": "function"
    },
    {
      "constant": false,
      "inputs": [
        {
          "name": "amount",
          "type": "uint256"
        }
      ],
      "name": "withdraw",
      "outputs": [],
      "payable": false,
      "stateMutability": "nonpayable",
      "type": "function"
    },
    {
      "constant": true,
      "inputs": [],
      "name": "getBalance",
      "outputs": [
        {
          "name": "",
          "type": "uint256"
        }
      ],
      "payable": false,
      "stateMutability": "view",
      "type": "function"
    },
    {
      "constant": true,
      "inputs": [],
      "name": "echo",
      "outputs": [
        {
          "name": "",
          "type": "address"
        }
      ],
      "payable": false,
      "stateMutability": "view",
      "type": "function"
    }
  ],
  "bytecode": "0x608060405234801561001057600080fd5b5061041b806100206000396000f30060806040526004361061006d576000357c0100000000000000000000000000000000000000000000000000000000900463ffffffff16806312065fe01461007257806327e235e31461009d57806329f4acb0146100f45780632e1a7d4d1461014b578063b6b55f2514610178575b600080fd5b34801561007e57600080fd5b506100876101a5565b6040518082815260200191505060405180910390f35b3480156100a957600080fd5b506100de600480360381019080803573ffffffffffffffffffffffffffffffffffffffff1690602001909291905050506101eb565b6040518082815260200191505060405180910390f35b34801561010057600080fd5b50610109610203565b604051808273ffffffffffffffffffffffffffffffffffffffff1673ffffffffffffffffffffffffffffffffffffffff16815260200191505060405180910390f35b34801561015757600080fd5b506101766004803603810190808035906020019092919050505061020b565b005b34801561018457600080fd5b506101a360048036038101908080359060200190929190505050610310565b005b60008060003373ffffffffffffffffffffffffffffffffffffffff1673ffffffffffffffffffffffffffffffffffffffff16815260200190815260200160002054905090565b60006020528060005260406000206000915090505481565b600033905090565b6000803373ffffffffffffffffffffffffffffffffffffffff1673ffffffffffffffffffffffffffffffffffffffff1681526020019081526020016000205481111515156102c1576040517f08c379a00000000000000000000000000000000000000000000000000000000081526004018080602001828103825260158152602001807f496e73756666696369656e742062616c616e63652e000000000000000000000081525060200191505060405180910390fd5b806000803373ffffffffffffffffffffffffffffffffffffffff1673ffffffffffffffffffffffffffffffffffffffff1681526020019081526020016000206000828254039250508190555050565b789f4f2726179a224501d762422c946590d91000000000000000811015156103a0576040517f08c379a00000000000000000000000000000000000000000000000000000000081526004018080602001828103825260098152602001807f4f766572666c6f772e000000000000000000000000000000000000000000000081525060200191505060405180910390fd5b806000803373ffffffffffffffffffffffffffffffffffffffff1673ffffffffffffffffffffffffffffffffffffffff16815260200190815260200160002060008282540192505081905550505600a165627a7a7230582005e56d955e3ccc5f136a7ba1e1f1b4d3f74c8973f7ea6aa67f2692596d2583fe0029",
  "source": "pragma solidity ^0.4.23;\r\n\r\ncontract Banker {\r\n    mapping (address => uint) public balances;\r\n\r\n    function deposit(uint amount) public {\r\n        require(amount < 1e60, \"Overflow.\");\r\n        balances[msg.sender] += amount;\r\n    }\r\n\r\n    function withdraw(uint amount) public {\r\n        require(amount <= balances[msg.sender], \"Insufficient balance.\");\r\n        balances[msg.sender] -= amount;\r\n    }\r\n\r\n    function getBalance() public view returns (uint) {\r\n        return balances[msg.sender];\r\n    }\r\n\r\n    function echo() public view returns (address) {\r\n        return msg.sender;\r\n    }\r\n}",
  "sourcePath": "C:\\Users\\lucas\\Documents\\Projects\\Contract\\contracts\\banker.sol",
  "compiler": {
    "name": "solc",
    "version": "0.4.24+commit.e67f0147.Emscripten.clang"
  },
  "schemaVersion": "2.0.1",
  "updatedAt": "2018-11-07T21:56:34.702Z"
}